:020000040800F2
:1000000000020020B9040008250500083505000895
:10001000FD0600080D0700081D070008000000008D
:10002000000000000000000000000000790400084B
:100030002D070008000000005D040008950100087D
:100040009501000895010008950100089501000838
:1000500095010008950100088D1700088D1700080C
:100060008D1700088D1700088D17000895010008EE
:100070009501000895010008950100089501000808
:100080009501000895010008950100080000000096
:100090000000000000000000000000008D170008B4
:1000A00095010008950100089501000895010008D8
:1000B00095010008950100089501000895010008C8
:1000C00095010008950100089501000895010008B8
:1000D0009501000895010008411500080000000086
:1000E0008D170008950100080000000000000000C6
:1000F0000000000000000000000000009501000862
:1001000000000000950100089513000800000000A1
:1001100000000000000000000000000000000000DF
:100120009501000895010008950100089501000857
:100130009501000800000000000000000000000021
:100140000000000000000000000000009501000811
:100150009501000895010008950100084715000861
:100160009501000895010008000000000000000053
:10017000000000000000000000000000000000007F
:1001800000000000950100080000000000000000D1
:100190009501000800F0D2BA00F0DEBA7047000006
:1001A000014608B5024809F017FA00F0D0FAFEE758
:1001B000A0A7000870B50C46064600F06BF9094B85
:1001C000094A1D682919914202D8084A914204D26D
:1001D0000C2333604FF0FF3500E0196000F062F946
:1001E000284670BD0002002000800120C04500208C
:1001F000014B188800B27047880400200323036075
:100200004FF0FF3070471946104600F0B1BA19465A
:10021000104600F0B5BA132303604FF0FF3070476B
:10022000132303604FF0FF307047132303604FF038
:10023000FF30704702294FF0000303608CBF00209D
:1002400001207047114B70B500241C60104B114DFC
:1002500018682E6800F09CF80F4B53F820301B688C
:10026000A3F1080296420FD026B13179092904BFC3
:100270000A213171092103F8041C33F9021C074BD0
:100280002A601980012070BD204670BD84040020C2
:10029000580500208C0400209404002088040020CD
:1002A000082930B5037919D9082B32D842791A4B6D
:1002B00053F8225000F108042DB12D68856053F8E1
:1002C00022502C6000E0846043F82240134C4279B5
:1002D000012303FA02F22368134319E0082B18D90B
:1002E00045790D4B53F825203AB11468A2420BBF53
:1002F0000022246843F825201460427953F8223004
:100300003BB9064C012303FA02F2236823EA0203F5
:100310002360017130BD00BF940400205805002007
:1003200008B50A4B1B681A79082A02D95B798342FF
:100330000AD900F0BAF818B1054B01221A6008BDBD
:10034000BDE8084000F082B808BD00BF8C04002062
:100350008404002008B500F09DF8094B094A1B8869
:10036000094D1BB2002442F82340084A286813684C
:100370002146013B1360FFF793FF2C6000F062F809
:1003800088040020D40400208C0400209004002065
:100390000023C20702D440080133FAE71846704729
:1003A000134423F0030310B54FF077321C1F43F8BA
:1003B000042C620742BF4FF0883243F8082CA3F1A7
:1003C00008044FF0807304E909000F4B44F80C3C1B
:1003D000002344F8103C032344F8143C2246022333
:1003E00044F8183C012344F81C3C42F8201D0B2320
:1003F00042F8043D013B032BFAD120466FF0020383
:1004000040F8443D10BD00BF55030008064B0749A6
:10041000074A1868884203D1934201D20433F8E7AF
:100420000348C01A704700BF00000020FEE7FEE747
:1004300000020020EFF3088070470000004870477A
:100440000000002000F02AF801DFFEE7024A5368AE
:1004500043F080535360704700ED00E0EFF30980F4
:1004600020E9F00F40F804ED02490968086000F047
:1004700003F800008C040020FFF7E4FE0448006845
:10048000016801C9B1E8F00F81F309880047000055
:100490008C040020EFF3108072B6704762B6EFF361
:1004A0001080704780F310887047EFF30580C0B26A
:1004B000704770477047000008B5FFF7FAFF6A46BB
:1004C000114B1249934202D243F8041BFAE7104A37
:1004D000104B11498B4204D252F8040F43F8040B1D
:1004E000F8E70E4B0E4A0021934202D243F8041B58
:1004F000FAE7FFF7DFFF00F037FB08F05DFFBDE82C
:10050000084000F043BB00BF00000020FEE7FEE70C
:10051000D4CE0008000200208404002084040020BF
:10052000C045002008B50249042000F05DFB00BF73
:10053000BAA700080D490E4A0E4B6846904203D8F0
:10054000984201D9002102E009468D46012104208C
:100550007246024202D1EFF3088001E0EFF3098016
:100560002DE9F00F6B4600F007F800BF00020020F5
:1005700000800120600500202DE9F04F9A46494B8C
:100580008FB093469A6B03925A6B04929F6ADA6A11
:1005900005921A6BDB6B0793434B06921A68434B29
:1005A0009A420446884602D0414809F087F8B8F1DB
:1005B000000F05D03F48002509F080F82E4626E0C0
:1005C00094E80E00E068D4F81C9008902069099027
:1005D00060690A9019F4007F3748A6690D930CBF33
:1005E00004F1200504F124050C920B9109F066F842
:1005F000089B00930BA90EC9304808F0EDFFCDF819
:10060000009033460A9A09992D4808F0E5FF2D48D5
:1006100009F054F839462C4808F0DEFF05992B48BC
:1006200008F0DAFF06992A4808F0D6FF079929480A
:1006300008F0D2FF3A0403D50399274808F0CCFF0D
:100640003B0603D50499254808F0C6FF244809F065
:1006500035F85946234808F0BFFFB8F1000F1BD109
:10066000214809F02BF83146204808F0B5FF6946CB
:100670001F4BC91A03D549421E4808F0ADFF20465A
:100680008268C36801698C4641698E46AD46514611
:1006900091E8F00F4168006801BE1749052000F09D
:1006A000A3FA00BF00ED00E000000020FEE7FEE737
:1006B000C6A70008DCA700080BA8000826A80008A9
:1006C00063A80008A1A80008AAA80008BAA8000802
:1006D000CAA80008DAA80008EAA80008FAA80008D2
:1006E0000AA900080FA9000821A9000852A90008BA
:1006F000580100207AA90008A7A9000808B50249F6
:10070000062000F071FA00BFBAA9000808B5024936
:10071000072000F069FA00BFCDA9000808B502491A
:10072000082000F061FA00BFDFA9000808B50249FF
:10073000092000F059FA00BFF3A9000808B50249E2
:100740000A2000F051FA00BF05AA0008704708B55A
:10075000FFF7A0FEFEE70000034B044A4FF4E1312F
:10076000002000F063BE00BF04020020AF0D0008AF
:100770000A460146014800F025BB00BF04020020E4
:1007800010B50A460C460146002000F0B5FE204692
:1007900010BD002000F0C0BD034B1968024611B91E
:1007A000084600F099BD7047A005002010B5094A21
:1007B00013685BB19C6881688C4202D21A461B6840
:1007C000F7E703D15C6841688C42F7D90360106099
:1007D00010BD00BFAC050020F0B51F4E1F4D3368A3
:1007E0001F4C013333601F4B00201A6818602B68C0
:1007F000226019460746B64641B1DEF800C08E6851
:10080000664503D80F4601200968F5E700B1296065
:1008100007B9F0BD00213960E2B133B151685868C1
:10082000814294BF1146194600E0114608461268FD
:100830001B680AB903600BE00BB9026008E0556859
:100840005E68B54294BF15461D4605602846EEE732
:100850002160F0BD2360F0BDA4050020AC050020A0
:10086000A80500209C0500202DE9F0412E4F2F4CBB
:1008700001233B6023683BB9FFF7AEFFFFF789FF19
:100880000130FBD0002502E0FFF783FF05464FF063
:100890000008236823B9FFF77CFF854214D91AE0CA
:1008A0005E68FFF776FF854208D923685E68FFF728
:1008B00070FFA8422CD3B042F7D329E08642F4D986
:1008C000361A132EE7D8F0E7236843B9FFF761FF24
:1008D000854206460BD9FFF77FFF0025D9E75E6802
:1008E000FFF757FF063E14308642D2D309E010F1DD
:1008F000140F04D3FFF74DFF8642FBD9EBE74FF00F
:10090000FF3600233B603046BDE8F041FFF744BFAF
:1009100023681A682260C3F80480C3F80880DA6884
:1009200018699047B5E700BFA0050020A805002082
:10093000144B1A6882420AD112681A6012B15068C8
:10094000063801E04FF0FF30FFF726BF13461A6864
:1009500022B19042FAD102681A6070470A4A1368BD
:100960001BB1984203D01A46F9E7084A05E003682C
:10097000136070479842FAD01A461368002BF9D1D9
:10098000704700BFA80500209C050020AC05002092
:1009900008B500231846054A054900F0CFFC4FF082
:1009A000FF30BDE80840FFF7F7BE00BF6908000848
:1009B00040420F0070B5084EFFF7EBFE3468054665
:1009C000FFF7E7FE8542F7D800222346141843F1CB
:1009D00000052046294670BDA4050020F8B5044650
:1009E0000D46FFF7D6FE00238542064623600FD34F
:1009F0006B1F83420CD20535FFF7CBFE8542FBD33C
:100A0000FFF7C7FE8542FBD8E368206998473EE0C0
:100A1000FFF740FD63680746002B34D1A368002B25
:100A200031D11C4B65601A681B68B54238BF013272
:100A3000A260A2689A4203D92046FFF7B7FE1EE0E3
:100A4000B54202D9144B19460EE0144A136823B17B
:100A500059688D4201D31A46F8E7236014600EE00E
:100A60005068854203D313461A68002AF8D12260E1
:100A70001C600B689C4202D1A81FFFF78DFE384610
:100A8000FFF710FD03E02046FFF752FFC9E7002003
:100A9000F8BD00BFA4050020A80500209C0500208B
:100AA00038B50446FFF7F6FC6368054633B9A3681A
:100AB00023B92846BDE83840FFF7F4BC2046FFF7CD
:100AC00037FFF6E7C36870B504460D46C3B1FFF7BC
:100AD000E7FF042D0CD8FFF75CFE0646FFF759FE32
:100AE000801B8542FAD8E3682069BDE8704018474A
:100AF000FFF74FFE29182046BDE87040FFF76EBF94
:100B000070BD00002DE9F04704460E4690461AB924
:100B1000BDE8F047FFF7D6BFFFF7BCFC63680746A8
:100B2000E3B9A368D3B9DFF83CA0FFF732FEDAF8E7
:100B300000508146FFF72DFE8145F6D8304408EB82
:100B40000502864288BF01326060A2602046FFF73E
:100B50002DFE3846BDE8F047FFF7A4BC2046FFF75E
:100B6000E7FEE0E7A405002000F018B908B501F0A1
:100B700014F9034808F030FD00F058FE002008BDCD
:100B800013AA000808B5FFF7E1FDFCE71FB5FFF762
:100B900081FC0E4B0E481B68029300240D4B009302
:100BA0000F220C234FF48071019400F081F80A4B5E
:100BB0000A481B6802930A4B009307220C234FF448
:100BC000C061019400F074F8FFF73CFC18020020AB
:100BD000B0050020850B00081C020020B006002094
:100BE0006D0B00087047000008B50F4B1A680C46E3
:100BF0009AB9012203281A6003D171460B4808F004
:100C0000EBFC21460A4808F0E7FC00F0F9F8094837
:100C100008F0E2FC084808F0DFFCFFF73BFCFFF7B8
:100C2000E1FFFFF794FD00BFB00C002093AA00087D
:100C300097AA0008BFAA0008B3AA000808B5FFF7E2
:100C400029FC094B1B681A79082A07D95A79074BDE
:100C500053F8221011B1096843F82210FFF722FC63
:100C6000BDE80840FFF7F2BB8C040020940400208C
:100C700038B50B79082B03D908490320FFF7B4FFD7
:100C80004C7901F1080203682BB113F8035CAC4204
:100C900001D31846F7E78B60026038BD81AA0008CF
:100CA000031F53F8042F9A42FBD0181A7047000014
:100CB0000F2A2DE9F74F05468B4691469A462AD8CA
:100CC00010F003031BBFC3F10403ED180B46CB1A4E
:100CD000303B23F003031AF0080F05EB030405D0A3
:100CE0002A46A24203D212600432FAE72D60019331
:100CF000FFF7D0FB2749019B8046012251F8227063
:100D000016B25FB10132212AF8D14046FFF7CAFB83
:100D10006FF08A003BE06FF0150038E01D490C9839
:100D200041F822402A46E6800D99FFF739FB0E9BD9
:100D3000194AA3624FF0FF33E36113682060013367
:100D40001AF0010F6562C4F82CB084F80590277181
:100D5000A760E76027616761A7612762136004D01D
:100D600001212046FFF79CFA0DE00A212046FFF7FB
:100D700097FA1AF0040F06D14046FFF793FB484656
:100D8000FFF7CEFA02E04046FFF78CFB304603B097
:100D9000BDE8F08FD40400209004002008B501F0D5
:100DA0008FF800F09FF8BDE8084000F01CB838B597
:100DB0000446043000F027FD0546204601F05AF8AD
:100DC000284638BDF8B504460E461746051D3A4676
:100DD0003146284600F002FD20B90121204601F0ED
:100DE00019F8F4E7F8BD08B5002000F04FF901202C
:100DF00000F04CF90220BDE8084000F047B90000BF
:100E00002DE9F04F2C4B2D4A1B882D492D482E4E95
:100E1000DFF8CCB08BB00DF1280906F1800A29F873
:100E2000043D08F0D9FBFFF7F1FA0546FFF706FB92
:100E30000446FFF7FFFA2A46009023464FF400715C
:100E4000224808F0C9FB25EAE5754FF4007856F80A
:100E5000044B14B32779E26A5BF82730606A079382
:100E600090440692FFF71CFF069AB4F90610079B00
:100E7000101A22680592626A04920390E26A029252
:100E800062790192082FD4BF4F4609F101070097FC
:100E90000544A26A0E4808F09FFBB245D7D10D4B1E
:100EA00002958DE808010C4A0C48194608F094FB9D
:100EB0000BB0BDE8F08F00BFC1AA0008F0AA00087F
:100EC000F6AA0008FBAA0008D804002042AB0008DC
:100ED0008CAB0008C8AB0008CAAB0008CEAB00085A
:100EE000C4AA000838B5FFF7D5FA1B4C0023E3600D
:100EF000054600F037F84FF48053A360A268164B04
:100F000012F00C0FFAD1154A40F2027111608122E1
:100F10001A601A6842F480321A601A6812F4003FAC
:100F20000D4AFAD00E4B5360136843F08073136080
:100F30001168094B8901FBD59A6842F002029A6058
:100F40009A6802F00C02082AFAD100F017F8284635
:100F5000BDE83840FFF7A6BA00380240003C024026
:100F6000042A4107044B1A6842F001021A601A6809
:100F70009207FCD5704700BF00380240044B9A68C6
:100F800012F00C0F1EBF1A6822F001021A6070479F
:100F900000380240034B044A00280CBF1046184694
:100FA000704700BF00BD010580DE800204281CD808
:100FB000DFE800F003080D1217000D4B1A6C114307
:100FC000196412E00A4A536C194351640DE0084A4F
:100FD000136B1943116308E0054A536B19435163BE
:100FE00003E0034A936B19439163BFF34F8F70473C
:100FF00000380240042821D8DFE800F003090F156B
:101000001B000F4A136C23EA0101116470470C4A5C
:10101000536C23EA010151647047094A136B23EAB8
:10102000010111637047064A536B23EA01015163C2
:101030007047034A936B23EA01019163704700BF35
:1010400000380240F8B5104C04EB401401216768E9
:10105000384600F07BFAA6680021304600F076FAA8
:10106000E5680121284600F071FA247D38462146C2
:1010700000F00EFB2146304600F00AFB21462846D0
:10108000BDE8F84000F004BB54AC000802282DE98C
:10109000F041044603D910490320FFF7A5FD0F4B8B
:1010A000DFF83C80002543F820506401FFF7CAFFB9
:1010B00008EB04031E7F9F6930463946FFF776FF31
:1010C00058F8043039461D603046DD615D60BDE88A
:1010D000F041FFF78FBF00BF81AA0008B40C0020C9
:1010E00054AC0008022870B50C4621D84A1C22D006
:1010F00021F0FF0313F5807F11D114F0FF041AD102
:101100000E4B03EB40152E69731C14D001213046A1
:1011100000F01CFA297D304600F0BAFA06E0012101
:10112000204600F013FA204600F01CFB002070BDA2
:101130004FF0FF3070BD6FF0010070BD54AC00087F
:10114000042B2DE9F84304460E461546984603D96C
:1011500017490320FFF748FD1648DFF86090670144
:10116000012100EB840000F055FE09EB07031C7F12
:1011700099692046FFF71AFF0F4B59F8071004EB47
:1011800084041C4416F5807F14F8082045EAC20543
:1011900045F004050D6015BF0B684B6843F44073C0
:1011A00043F0040314BF0B604B600020BDE8F883DC
:1011B00081AA0008B40C002047AC000854AC000819
:1011C0000B4A430110B50446D018D3588169007FFB
:1011D00000221A605A6822F004025A60FFF70AFFE0
:1011E000044800EB8400BDE8104000F043BE00BF9F
:1011F00054AC0008B40C00202DE9F843089E099F68
:10120000884691461D4623B91EB931490320FFF790
:10121000EBFC304B400118F5807F1C58236843F0ED
:101220004003236005D0B8F1FF3F02D0404600F0F4
:10123000A2FAA6B92F44AF4206D0A3689E07FCD5F8
:1012400015F8013B2373F6E7A3689807FCD5A3685C
:101250001906FCD4A368DA0720D5E368FAE70DB1D4
:10126000002319E030463744B84217D0A3689B07E3
:10127000FCD52573A368DE07FCD5237B00F8013B72
:10128000F2E7A2689007FCD5EA5C2273A268D10756
:10129000FCD5227BF2540133BB42F2D1A3689A07FA
:1012A000FCD5A3681B06FCD4B9F1000F0ED1B8F130
:1012B000FF3F0BD0236818F5807F23F040032360A5
:1012C00004D04046BDE8F84300F04CBABDE8F883CE
:1012D00081AA000854AC0008032910B516D80D4B9C
:1012E00000011C181B586068024001F10C0003EB60
:1012F000800042601869022202FA01F120EA01022C
:101300001A61DA681143D960002010BD4FF0FF3038
:1013100010BD00BFB4AC00080001024B1B58586A56
:10132000704700BFB4AC0008034B00011A581368A3
:1013300043F0010313607047B4AC000870B50E466B
:101340000446F0B91049114D81E80C000821FFF75F
:101350002DFE4FF0FF332C6020466C60EB62FFF7F0
:1013600019FE01234000B0FBF6F00138A8626B6162
:10137000074B4FF4802220465A60FFF7D5FF2046E6
:1013800070BD4FF0FF3070BDC00C0020000C00405D
:1013900000E100E0114B2DE9F0411E69DA68104FC1
:1013A000164000254FF002081C4608FA05F21642C6
:1013B00007D0E368786823EA0203E36029463B68C4
:1013C00098470135042DF0D1064B1B681BB1BDE8D1
:1013D000F041FFF733BCBDE8F08100BF000C0040D6
:1013E000C00C00208404002038B514230C4A434369
:1013F000D4582568AA0608D50A4B616803EBC002D9
:10140000C9B253F83030506898472B0748BF63681B
:10141000054B1B681BB1BDE83840FFF70FBC38BD5A
:10142000C4AC0008C80C00208404002001282DE969
:10143000F04780460D46174603D92B490320FFF796
:10144000D3FBDFF8B090294A142404FB009442F83F
:101450003070E66802EBC00201215360304600F0B4
:1014600075F8304600F07EF93046617C00F010F9E6
:101470004E464FB1D4F808900021484600F066F877
:10148000217C484600F004F9142303FB08F806EB1E
:10149000080999F812A0D9F804105046FFF786FD04
:1014A00056F808400023E360504623616361FFF76C
:1014B00071FDB0FBF5F080B2A06077B199F8133000
:1014C00001215AB203F01F0301FA03F3520908493C
:1014D00041F8223042F22C0301E042F20803E360BB
:1014E0000020BDE8F08700BF81AA0008C80C0020DA
:1014F00000E100E0C4AC0008012838B505D80E4C66
:1015000014230A4403FB004309E00C490320FFF7BE
:101510006BFB25682D06FCD511F8015B65608A42DE
:1015200001D01C68F5E714235843034B1A5813687D
:101530005B06FCD538BD00BFC4AC000881AA00081A
:101540000020FFF751BF0120FFF74EBFF8B501277C
:101550000D46C0F3832120F00F0400F00F0607FAB8
:1015600001F10220FFF722FD06FA07F003232168AC
:1015700083406FEA030C01EA0C012160216805F049
:10158000030E0EFA00FE4EEA01012160E2680CEA49
:101590000202E260E168C5F3810282400A43E26030
:1015A000626807FA06F122EA010262606268C5F326
:1015B0000015B54015436560A2681036134307FA5D
:1015C00006F6A3600020A661F8BD00002DE9F041F9
:1015D00000F00F0415462B4A42F8343002EBC402E7
:1015E000069B536006468846C0F383274FF480412C
:1015F0000120FFF7DBFC41463046FFF7A7FF042C34
:10160000214B03DCA11D01228A4003E0092C03DCED
:101610004FF400021A6002E04FF480725A601B4BD4
:101620000120996800FA04F2D24311409960996848
:1016300005EA000E0EFA04FE4EEA01019960D9682F
:101640000A40DA60C540DA68A54004F00C0404F1F1
:10165000804404F59C341543DD6006F00302A56860
:1016600092000F21914025EA0101A160A1689740F5
:10167000B0400F43A76058611A68104318600020FB
:10168000BDE8F081D80C002000E100E0003C014002
:1016900020F00F0300F00F02F0B51E68570003257D
:1016A000BD4026EA05051D601D680224072A04FACC
:1016B00007F444EA050494BF002201221C6003EBF6
:1016C000820300F007001C6A80000F22824024EA97
:1016D00002021A621A6A814041EA02001862F0BDF1
:1016E000C0F383230121994010B504460220FFF77F
:1016F0005DFC24F00F0104F00F040B68640003226A
:1017000002FA04F41C430C6010BD0000044900F010
:101710000F000B68012202FA00F003430B607047D0
:10172000003C0140054900F00F000B68012202FA5D
:1017300000F023EA00030B60704700BF003C01404B
:1017400020F00F0300F00F00196810B503224400C9
:10175000A2400A4214BF5B691B69012202FA00F031
:10176000184010BD20F00F02012300F00F0003FA13
:1017700000F09061704720F00F0200F00F00103071
:10178000012303FA00F0906170470000104B2DE92F
:10179000F0415E691A680F4F164000244FF00108AF
:1017A0001D4608FA04F31E4206D06B6107EBC40322
:1017B00057F83420586890470134102CF1D1064B6B
:1017C0001B681BB1BDE8F041FFF738BABDE8F081F6
:1017D000003C0140D80C00208404002070B5134662
:1017E0007BB18568C468A5420BD084680668651C17
:1017F00085604568013D2C40013B345D01F8014B9B
:10180000EEE7D01A70BDC368426830B584681B1B10
:10181000934208D0C3680468013A5D1C1340C56058
:10182000E154002030BD4FF0FF3030BD00B52F48EF
:10183000A1B007F043FF2E4807F040FF01212D48DB
:10184000FFF784FE01212C48FFF780FE01212B4881
:10185000FFF77CFE01212A48FFF778FE0121294885
:10186000FFF774FE01212848FFF770FE002127488A
:10187000FFF76CFE00212648FFF768FE002004F009
:10188000FDFB012004F0FAFB022004F0F7FB03202B
:1018900004F0F4FB042004F0F1FB052004F0EEFB5F
:1018A0003C221C491C4807F06FFF1C4807F006FF4C
:1018B00000211B4806F094FA1A4807F0FFFE0021A9
:1018C000084605F0D1F900F05DF800F0F1F800F0FD
:1018D000B9FD154807F0F2FE3C21144807F07CFEE4
:1018E00080226946002004F095FC00BFECAC0008A3
:1018F00009AD00080A00024003040240050402404A
:10190000040402400A0402400800024009000240A8
:10191000060402403CAD0008580D002046AD00080A
:10192000C0C62D006FAD00088EAD0008A2AD000846
:10193000BFF34F8F0549064BCA6802F4E0621343B8
:10194000CB60BFF34F8F00BFFDE700BF00ED00E0AD
:101950000400FA05F0B50A4C85B0054620460E464F
:10196000174607F098FF0023C0B20290009301943D
:101970003B4632464521284604F0ADFA05B0F0BD9D
:10198000ADAD0008014800F09DBD00BF2002002061
:10199000F8B5064E05460F46002430193946103476
:1019A000A847B4F5E07FF8D1F8BD00BF80AE0008CD
:1019B00007B50020FFF7B0FC0B4B01901B681BB173
:1019C000DB6AB3F5007F03DD084807F005FE02E09F
:1019D000074807F073FE00210648FFF7D9FF0649C4
:1019E00001A806F027FAF6E78C04002040B00008B2
:1019F00061B00008FD190008809698004368DB0676
:101A00002DE9F341804642D5224C23681BB1DB6AA5
:101A1000B3F5007F05DDD8F800101F4807F0DCFDA6
:101A200002E01E4807F04AFE1D4D1E4E002305220F
:101A30008DE80C0001211A462846356004F08AF929
:101A40002946D8F80870434680223046B847011E20
:101A500007DC23681BB1DB6AB3F5007F0BDD12489E
:101A600010E04246284600F047FE23684BB1DB6A8F
:101A7000B3F5007F05DC094802B0BDE8F04107F08E
:101A80001DBE0A4802B0BDE8F04107F0A5BD02B096
:101A9000BDE8F0818C0400207FB0000861B0000830
:101AA000300E0020980D0020A2B00008B1B0000850
:101AB0001FB50B4CB4F900306BB90A4A01930A4BBD
:101AC00002920093062208234FF4C0610748FFF7F3
:101AD000EFF8208001E06FF0100004B010BD00BFEF
:101AE000B0140020C5B00008B1190008B00E0020E5
:101AF00070B51E4613460422054600F0B3FD431C94
:101B0000044604D030B1841C10D007F09FFA6FF067
:101B10000B0070BDB1B2D5F8880000F00AFC224677
:101B200001462846BDE8704000F0D8BC6FF07F0049
:101B300070BD00007FB50446D8680D461646FFF715
:101B4000FFFD094A094B002814BF1846104602231E
:101B500002930023019000932A46334645212046F4
:101B600004F0B9F904B070BD8ECA0008B7AD000822
:101B700070B50546D8681C460E46FFF7E1FD2246C3
:101B8000034631462846BDE87040FFF7B1BF00006C
:101B90002DE9FF41DC68264D06460F46204601210F
:101BA0009046FFF7D3FC2B681BB1DB6AB3F5007FCF
:101BB00005DDD6F888101F4807F00EFD02E01E482C
:101BC00007F07CFDD6F888301B78312B2B6810D1BC
:101BD0001BB1DB6AB3F5007F04DD2146174807F02F
:101BE000FBFC02E0144807F069FD2046FFF7BAFD50
:101BF0000FE01BB1DB6AB3F5007F04DD214610481E
:101C000007F0EAFC02E00C4807F058FD2046FFF719
:101C1000B2FD0023029301934FF6FF7300933A46FF
:101C200043464421304604F056F904B0BDE8F08143
:101C30008C040020D2B0000861B00008EAB00008AF
:101C400001B1000810B50468647804F01F04032C87
:101C500007D0052C09D0012C0BD1BDE81040FFF7AF
:101C600069BFBDE81040FFF793BFBDE81040FFF724
:101C70007FBF07F0EBF90000F0B5054687B0D868E4
:101C80000E464FF08071174604F028FA224B1B686D
:101C900084B21BB1DB6AB3F5007F04DD21461F4827
:101CA00007F09AFC02E01E4807F008FD0A234FF4F3
:101CB0007A72B4FBF2F2B2FBF3F103FB1122303281
:101CC0008DF810206422B4FBF2F2B2FBF3F103FBB7
:101CD00011223032B4FBF3F188B28DF81120B0FB41
:101CE000F3F203FB1202303203FB11438DF8122092
:101CF000303304228DF813300292002304AA8DF8A9
:101D000014300192009332463B464521284604F0A8
:101D1000E2F807B0F0BD00BF8C0400201AB1000843
:101D200061B000082DE9F04106460F46D8684FF033
:101D300080711C4604F0D2F90B4B1B6885B21BB1B5
:101D4000DB6AB3F5007F04DD2946084807F044FC50
:101D500002E0074807F0B2FC2B46224639463046DF
:101D6000BDE8F041FFF7C4BE8C04002035B1000887
:101D700061B0000810B50468647804F01F04012CF9
:101D800005D0052C07D1BDE81040FFF7CBBFBDE85B
:101D90001040FFF771BF07F059F908B5002004F0B3
:101DA000DFF9FEF7F5FD03F05DF901F007F803F048
:101DB00019FD00F047FB00F005F8BDE8084001F010
:101DC00011BD000030B587B0002303930C4D0D4BBF
:101DD0000D4C049303A903F57E732846059300F088
:101DE00081FA2946204602F03FFF0094074B08483D
:101DF00002224FF4806102F02FFE07B030BD00BF19
:101E0000B41400200A080240D014002042B1000897
:101E1000E014002070B505460C46FEF73BFB2B682E
:101E200006462BB94FF0FF332B60FEF73BFB18E063
:101E3000CCB10F4B1C6802212046FEF731FA2B680B
:101E4000013305D104F108032B600023A36003E0F4
:101E500021462846FEF70CFF3046FEF723FBFEF72F
:101E6000F5FA012070BDFEF71DFB204670BD00BFD6
:101E70008C04002070B50446FEF70CFB256806466E
:101E80001DB16B1C05D100232360BDE87040FEF737
:101E900009BB28460A2150F808392360FEF700FAEA
:101EA000236813B94FF0FF33236015F8034C304615
:101EB000FEF7F8FA2046BDE87040FEF731BA0000A0
:101EC0000F4BD3F8882042F47002C3F888200D4AE3
:101ED0009A60102283F822200021DA7701F1604015
:101EE00000F561400131552980F80023F6D11A69C7
:101EF00042F010021A615A6942F400725A61704746
:101F000000ED00E0000000080169C0680223002223
:101F1000FFF716B90B4600220169C06804F00EB93C
:101F200073B5044615461E4601220B460169C0687A
:101F300004F004F9069B019300962B4600222169C8
:101F4000E068FFF759F902B070BD10B5044640696A
:101F5000FFF7E8FB636820460021BDE81040184702
:101F60001FB520238DF808300423019303AB0093A1
:101F700000228DF8091002AB0169C0688DF80A20B3
:101F80008DF80B20FFF738F99DF80F009DF80E3003
:101F900043EA002005B05DF804FB022970B5044651
:101FA000154617D1052B19D9FFF7AEFF642120463E
:101FB000FFF7D6FF622128802046FFF7D1FF60217E
:101FC00068802046FFF7CCFFA880E068FFF7F8F8AC
:101FD000062070BDBDE8704003F0E4BF6FF015004F
:101FE00070BD1FB522238DF80E20120A8DF80C301B
:101FF0008DF80F20042300228DE80C008DF80D10C1
:1020000003AB0169C068FFF7F7F805B05DF804FBA2
:10201000F0B5044685B017460E46FFF775FF228BD4
:102020004FF6FF739A4203D08A212046FFF7D9FF6B
:102030000823009300226B442C212046FFF770FFF9
:10204000BDF80A50043DDEB1BD4205D9E068FFF796
:10205000B7F86FF0680516E0002233462C212046C1
:102060000095FFF75DFFCC212046FFF753FFBDF839
:1020700008202283023A92B206212046FFF7B1FFE0
:10208000E068FFF79DF8284605B0F0BD1FB5242392
:102090008DF80E20120A8DF80C308DF80F200423D5
:1020A00000228DE80C008DF80D1003AB0169C068AB
:1020B000FFF7A2F805B05DF804FB000073B50169F5
:1020C0000446C068FFF70EF8054600286BD100945F
:1020D000374B606902220421FFF778FA2046FFF7A8
:1020E00013FF41F234260021324805F079FE41F217
:1020F000342216212046FFF774FF00212D4805F0F9
:102100006FFE16212046FFF72BFFB042EBD11A21BC
:102110002046FFF725FFC304F9D5CA212046FFF763
:10212000F9FE00214FF47A7005F05AFE1621204680
:10213000FFF716FF0028D4D120464FF482725421B5
:10214000FFF74FFF204640F2E1526621FFF749FFBB
:10215000204680226E21FFF799FF204645F240324B
:102160000421FFF73EFF204645F6FF720621FFF7E8
:1021700038FF45F240332383204602223421FFF703
:1021800085FF4FF4046220467221FFF77FFF20464F
:10219000E821FFF7BFFE2046EC21FFF7BBFEE06819
:1021A000FFF70EF801E04FF0FF35284602B070BD92
:1021B0004B1F0008A086010030B5044685B0FFF72C
:1021C000A3FEEE212046FFF7A5FE1C212046FFF7C7
:1021D000C7FE020505460BD51A212046FFF7C0FEB3
:1021E00010F4807F636814BF0921082120469847B6
:1021F0006B061FD426238DF80C301C238DF80D3070
:10220000082300228DF80F3004238DE80C0021698B
:10221000E0688DF80E2003ABFEF7EEFF6069FFF774
:1022200075FAEC212046FFF775FEE068FEF7C8FF5F
:1022300005B030BD1A212046FFF792FE30F47F43EF
:10224000D8D0E068FEF7BCFF2046636802219847BB
:102250002046FFF759FEEDE72DE9F74F06460F46FA
:102260009146FFF751FE1E213046FFF779FE00F040
:10227000020084B2002CF6D125464FF6FF784C457B
:1022800019D0002C14BF42464FF44D52424597E8F6
:10229000000C03D088213046FFF7A3FE0023CDF8C1
:1022A00000B052462A213046FFF73AFE7B680134DF
:1022B0001D440837E3E730464FF44D520021FFF745
:1022C00090FEAAB230460221FFF78BFED4213046A1
:1022D000FFF720FEF068FEF773FF284603B0BDE865
:1022E000F08F0000054B03600B68C3604B6803610F
:1022F0008B68436145F240330383704754B1000853
:1023000010B503460A4601200A24092A03D9B2FB64
:10231000F4F20130F9E75BB103440A24B1FBF4F2B3
:1023200004FB1211303103F8011D1146002AF5D1CA
:1023300010BDFFF7E5BF00000B4A002330B5036076
:102340001446D2F89C504DB1D2F8A0508D4205D120
:10235000142202FB03439C33036030BD0133102B76
:1023600002F11402EDD130BD380200202DE9F8430E
:102370000024144D046007460E464FF0FF3801F16B
:10238000040955F8043C0BB9A04613E0042B0CBF1C
:10239000102204224946284607F034F850B96A8AC8
:1023A000F38A9A4206D1084A182303FB04246C34AA
:1023B0003C6004E00134022C05F11805E1D14046EF
:1023C000BDE8F883A8020020380200202DE9F3417F
:1023D00000240460064602A8904640F8044DFFF72A
:1023E000C5FF164D4FF0FF3755F8083C0BB927468F
:1023F0001BE0019A934218D1B8F1000F0ED0D8F823
:102400000030AA681B7803F00F039A420DD162B125
:10241000D8F88410284606F0F5FF30B9084A14238E
:1024200003FB04249C34346004E00134102C05F1D7
:102430001405D9D1384602B0BDE8F081DC02002095
:10244000380200207FB51A4EB6F900405CBB194B2C
:102450000293194B0093062208234FF4C0610194A4
:102460001648174DFEF724FC30802846602221468E
:1024700040F8084B06F0FBFF3022214605F16C00C6
:1024800006F0F5FF4FF4A072214605F19C0006F01E
:10249000EEFF03F06BFEBFF35F8FA866BFF35F8FA5
:1024A000B6F9000001E06FF0100004B070BD00BF8D
:1024B0007C1F00206CB100083D2700087C1900201B
:1024C00038020020044B5B689A680AB11346FBE7A8
:1024D00082609860704700BF380200202DE9F04309
:1024E0000768A0F89020C0F88C103C787B7804F046
:1024F0000F045B090434022B85B005463C4420D10F
:10250000D0F89420511C1CD012BA0392C2F30722B7
:102510004AB99DF80E203AB99DF80F30002B14BF30
:102520000323042300E00123C3F10402009203AA61
:10253000134420460622002103F05AFC06260444D8
:1025400000E000262B68DFF8DC805B785B0921D196
:1025500005F10409484607F09EF9D8B12B792F2BD5
:1025600010D0D8F800301BB1DB6AB3F5007F03DD73
:10257000294807F031F802E0284807F09FF86FF08B
:10258000150426E0314620460B234A4603F0D5FCCD
:102590000B260444B5F890204FF6FF739A4205D0FD
:1025A0003146204603F07EFC0C2604442B685B7801
:1025B0005B0907D120460F2305F14402314603F0A1
:1025C000BCFC0444D5F88C3013B1FF2323700134D4
:1025D000E41BD8F800301BB1DB6AB3F5007F04DDE3
:1025E00021460F4806F0F8FF02E00C4807F066F8B5
:1025F000002C0BDDD5F88C2022B1D5F888103819C5
:1026000006F01AFFD5F88C00204401E04FF0FF30AF
:1026100005B0BDE8F08300BF71B1000861B00008EB
:10262000A6B100088C04002030B505682C7814F0A1
:10263000300F02BF24F0300444F020042C700468F2
:10264000637003681B7803F00F030C331944D21A2C
:102650004FF6FF73C0F88810C0F88C20A0F89030B7
:10266000002030BDF0B585B0054604A800240E4614
:1026700040F8044D19461746FFF75EFE039B8BB3E7
:102680001C4A2E60BFF35F8F52E8003F591C42E89E
:1026900000100028F8D1BFF35F8F9BB2039A01931B
:1026A00045230093136928680832012103F052FB87
:1026B000A0421ADD2046FEF72FFE2B68C0F357100C
:1026C000C5F894001A7802F00F020C3216444FF647
:1026D000FF73BA1AC5F88860C5F88C20A5F8903049
:1026E000204604E06FF0010001E04FF0FF3005B03C
:1026F000F0BD00BFA002002037B5044602A80023A9
:1027000040F8043D0D461146FFF716FE019828B12A
:10271000036803482A46214602F0BEFE03B030BDDE
:10272000E0180020044B98689B6B003018BF012014
:102730000BB10130C0B27047380200202DE9F047DC
:10274000E2B0042114A805F051FE1822002108A8C7
:1027500006F08DFE0423089341F233620023ADF8A6
:10276000362008A91A469948ADF8343002F0D0FD59
:10277000011E0EDA964B1B681BB1DB6AB3F5007FB6
:1027800003DD944806F028FFF1E1934806F096FF38
:10279000EDE18F4C06A805F023FE002822DDBDF8F0
:1027A0001A2041F201539A421CD12368079D1BB1A4
:1027B000DB6AB3F5007F03DD884806F00DFF02E019
:1027C000854806F07BFF2B68012B0BD12E69032077
:1027D00028602EB162A92B1D41F8983D0022B04718
:1027E00000232B60FFF79EFF0EAE00287C4B009667
:1027F00008BF4FF0FF3380221CA9744802F0DEFDB1
:10280000021E0CDCC6D012F1740FC3D023681BB1BA
:10281000DB6AB3F5007F0EDD1146724869E11CA941
:102820003CA803F06BF9011E0BDA23683BB1DB6AAD
:10283000B3F5007F03DC684806F040FFAAE76A486A
:1028400057E13C9843784BB923681BB1DB6AB3F579
:10285000007FF0DD654806F0BFFE9BE75A0940F0B7
:102860004B810178C1F30111012900F23A81013B4A
:102870004FF0010A0AFA03FA5D4B03925F68049273
:10288000059298464FB33D684FF000097B68994523
:102890001DD2B9F1000F00D010356B681AEA030F92
:1028A00017D023681BB1DB6AB3F5007F05DD3DAAB5
:1028B0002968504806F090FE02E0474806F0FEFE08
:1028C00029683DA806F0D5FF002802DC04D0BF68C7
:1028D000D8E709F10109D9E70DB98423E8E02946D1
:1028E00005A8FFF729FD6199002940F08B803CAADB
:1028F000314604A8FFF76AFD049B0746002B40F011
:10290000348100282ADB059B43BB314603A8FFF72F
:102910002DFD039BBBB9002808DB182202FB0080B9
:102920006C303146039006F07CFD0CE023681BB14F
:10293000DB6AB3F5007F03DD2F4806F04DFE02E0B1
:10294000254806F0BBFE039B23B1142303FB078736
:102950009C370497049B002B40F007814FF0FF3316
:10296000619323681BB1DB6AB3F5007F03DD234865
:1029700006F032FE02E0184806F0A0FE0498002897
:102980007FD0039B80E828003C9B1A7802F00F025E
:1029900002611AB15D99083006F043FD23681BB14E
:1029A000DB6AB3F5007F06DD049B15485B68196898
:1029B00006F012FE02E0084806F080FE0020FEF756
:1029C000ABFCC0F3571061905BE000BFE018002043
:1029D0008C04002045B2000861B0000864B2000811
:1029E00040420F0084B20008A1B20008BBB2000848
:1029F00038020020E2B200080CB300082CB3000833
:102A000050B3000801292AD13CAA314604A8FFF797
:102A1000DDFC049BFBB122681AB1D26AB2F5007FDB
:102A200005DD5B685448196806F0D6FD02E053489E
:102A300006F044FE049B00221A60314604A804926A
:102A4000FFF7C4FC049F37B9314603A8FFF78EFC9B
:102A5000039B03B11F604FF0FF33619311E04B1CE8
:102A60000FD023681BB1DB6AB3F5007F03DD444858
:102A700006F0B2FD02E0414806F020FE4FF0FF32C2
:102A800029E023681BB1DB6AB3F5007F04DD296808
:102A90003C4806F0A1FD02E0384806F00FFEAF68A2
:102AA0002B4680221CA93CA8B84700280FDAA02397
:102AB0001CA980223CA8FFF7B7FD014628B94FF6B4
:102AC000FF723CA8FFF70AFD01E04FF0FF3002461D
:102AD00000283FF45FAE33461CA92B4802F0DCFC13
:102AE00058E6236823B1DB6AB3F5007F7FF7A3AE16
:102AF000264806F071FD4DE6254BDDF874C1002532
:102B000003F1600E2F4653F8082CD2B113F8042CB1
:102B1000017812F00F0201F00F0118BF1F468A4220
:102B20000FD100218A4205D91CF8019017F80180C5
:102B3000C14504D08A4204D1A3F1080501E0013166
:102B4000F0E730337345DED1002D3FF423AE05F1BD
:102B50001400FDF7A5FF2B690220286013B132464F
:102B60003CA9984700232B6014E6049809E700204D
:102B700062B0BDE8F08700BF74B3000861B0000820
:102B80009BB30008C1B30008E0180020E0B30008C0
:102B900048020020282A2DE9F74F0746894603D02E
:102BA00024490320FEF720F8234B5B689E6800222F
:102BB0004FF03E0A002E38D034684FF00008103431
:102BC0004FF02C0B736898450BD254F8100C0192FF
:102BD00006F061FE019A0546E7B1D31C03444B455C
:102BE00001D9B668E6E7B8F1000F02D007F802B0E5
:102BF00001324FF03C01B954531CF8182A4654F8DE
:102C0000101C019306F00DFC019B1D446A1C07F883
:102C100005A006E0B8F1000F14BF0323022302440D
:102C20001A4408F101081034CCE7104603B0BDE89F
:102C3000F08F00BF81AA0008380200200CB410B544
:102C400004464523029AFFF7EFFCD4F88C10D4F821
:102C500088002822FFF79EFF282201462046FFF722
:102C60003DFCBDE8104002B07047002102F008BBF7
:102C700038B5CBB2002114460246084602F01EF8D1
:102C8000054618B92046FFF7F0FF0FE094F9103021
:102C900001330AD1A36882681B7903F03F03214600
:102CA0002046137102F0EEF804466C60284638BDE9
:102CB00038B58B68588005460C4600F003FC18B9FF
:102CC0000D490320FDF790FF636800221BB1D9680E
:102CD0005B680A44FAE7B0F85831934204D22046C0
:102CE000BDE83840FFF7C1BF2146284601F0D1FDBD
:102CF0000028F4DD38BD00BF81AA00082DE9F047A7
:102D00008C6806460F46154600231AB1D1685268F2
:102D10000B44FAE75BBAA380A379FF2B0AD12B7C83
:102D2000013BDBB2022B03D8214AD35CFF2B00D13D
:102D30003B23A371E37943B90EB9402304E0304645
:102D400000F0C0FB90F85A31E37104F1080810223A
:102D50001849404606F056FB8246D0B904F11809DE
:102D600015491022484606F04DFB014630B91022A5
:102D7000404606F07CFB0123E3750AE049465246D3
:102D8000304600F065FC014618B11022404606F0BE
:102D900048FB3946284602F02FF8002804DA831C45
:102DA00008BF0020BDE8F0870020BDE8F08700BF25
:102DB00029B40008A6B40008B6B400081FB50A4C30
:102DC000B4F9003063B9094A0193094B02920093A8
:102DD000042208234FF480610648FDF769FF208034
:102DE000B4F9000004B010BD7E1F002024B4000818
:102DF00011300008801F0020292B2DE9F84381465F
:102E00000F4614461D4606D03A2B06D0112B0CBF98
:102E10000323002302E0012300E00223292D3B7459
:102E200001D03A2D03D1A74256D1012602E0A74294
:102E300052D100267B6893F91000012805D016B303
:102E40000121204602F00AFA1DE0294601F0B8FFF0
:102E500018B986F0010836B101E04FF000080121F1
:102E6000204602F0FBF9234640F201221D4997F962
:102E7000100001F0D5FC10B92046FFF7F6FEB8F1BE
:102E8000000FDCD00AE0234640F20122294601204F
:102E900001F0C6FC10B92046FFF7E7FE06B3292D66
:102EA00007D03A2D18D121464846BDE8F84305F031
:102EB000EFBA00232374616839B191F91030012B06
:102EC00003D1204601F0DEFFF5E7012323742046FD
:102ED000BDE8F84300F00AB803490320FDF784FE7B
:102EE000BDE8F8830000FFFF81AA00082DE9F0414A
:102EF000044618B943490320FDF776FE4FF0FF3131
:102F000001F08BFF18B18368B3F9025000E0054669
:102F10002646204690F91030012B08D1C368282B93
:102F200005D183681B7803F0F003602B06D0476857
:102F30000646002F51D03846ECE734468768E368F0
:102F4000B98849BA89B2994203D2204602F02EF9D3
:102F50000FE022460023D068034492F910000128B4
:102F600003D1283B994204D92AE05268002AF2D1C1
:102F7000F7E707F1180810222349404606F042FA05
:102F800018B308222149404606F03CFA38B13B7E8E
:102F9000FF2B05D17B7E03F00F03022B00D13DB93F
:102FA0004146002000F0F8FA002D08BF054603E076
:102FB0004146284600F0C8FAB0FA80F0400920B136
:102FC0002046BDE8F041FFF750BEBB7922463146AE
:102FD0002846BDE8F041FFF70FBFA3681B7803F058
:102FE000F003602BECD1204602F058F90646002889
:102FF000E6D00122282102F06BF8377400289CD11A
:103000003046DEE781AA0008B6B4000856B40008CE
:103010002DE9F0479EB002AF1022002107F12000F9
:1030200006F025FA944B7B62944B08211B88BB85E4
:1030300007F1300005F0DAF907F12001012001F075
:1030400073FE40F205237B8207F1080005F0CBF9FF
:103050007B896FF400721344162BF5D801A252F845
:1030600023F000BFC1300008C93000083F3200081B
:103070003F32000849300008493000084930000854
:10308000493000084930000849300008493000083C
:10309000493000084930000849300008493000082C
:1030A00053320008493000085F32000849300008F8
:1030B00049300008493000086F32000867320008C4
:1030C000F868FFF713FFBFE7FB68984693F91030E5
:1030D00001330DD1D8F808304046B3F9026002F050
:1030E000DDF8044608B940460AE04368984601E026
:1030F00044460026404602F0D1F8054618B920465D
:10310000FFF7B3FDA0E7A045836818BF60601A46CB
:103110001B7ED0F8048008BF0446FF2B21D17EB966
:1031200007F1180001F0BEFD0028E8D0002122467A
:103130000846B7F91860FFF79BFD0446002883D0C6
:10314000424629463046FFF7D9FD0028D7DBA26862
:10315000137943F04003137121463046FFF7A8FD71
:1031600072E7134618331022454918469A4606F06E
:1031700049F940B15146002E36D1381D00F00CFA05
:103180000646002835D0424629463046FFF7B6FDB0
:103190000028B4DB29460022CB6849681A4400297C
:1031A000FAD10123084601F079FF06460028A6D08F
:1031B00083689846EA68A968404606F032F9EB68E9
:1031C0006D6842461A449046002DF3D12046FFF721
:1031D0004CFD2C4B3146B3F9000001F067FB002891
:1031E0003FF732AF30468BE7304600F0ADF90028AC
:1031F000C9D107F17001082301F86D3D32460094F2
:10320000534607F1180001F029FAE946064628B1AD
:1032100042462946FFF772FD002803DA2046FFF7F1
:1032200024FD0AE0F978224607F11800FFF720FD97
:10323000014610B13046FFF73BFDCD4604E76FF085
:10324000850307F1100107F108007B6105F09AF88A
:10325000FAE6FA68537F23F008035377F4E6F86838
:1032600000F06CFDF0E6F86800F0F8FDECE6F868B8
:1032700000F0D6FEE8E600BF0000FFFF8804002053
:10328000B6B400087E1F00200121FEF7C3BD2DE962
:10329000F84300F5A875074628468846FFF7F4FF6F
:1032A00000244FF0380909FB04764146304602F00D
:1032B000DEFA38B110220021304606F0D8F800239B
:1032C000337402E00134062CEDD12846BDE8F84302
:1032D000FEF7D0BD08B51022034906F093F8B0FA06
:1032E00080F0400908BD00BFA6B4000810B5082250
:1032F0000949044606F086F848B12378FF2B08D127
:10330000607800F00F00831E5842584110BD012024
:1033100010BD002010BD00BF56B400082DE9FF47C6
:10332000002581460F46924698462C4609EB050635
:103330003946304602F09BFA002847D13046FFF765
:10334000C9FF10B1002C08BF34463835B5F5A87F49
:10335000ECD12646002C39D010223946204606F002
:1033600060F884F811A084F810803B78FF2B04D11A
:1033700048F0010884F8108024E03846FFF7B6FFD3
:1033800018B1237C63F07F032374B9F8563103F03E
:103390000303012B16D040F2FF220023CDE90023C6
:1033A0004FF080730293FF238DF80C307B7B8DF8F8
:1033B0000D30FB89ADF80E30802200236946484667
:1033C000FFF7ACFF40F2112363866463304604B01C
:1033D000BDE8F08703885BBA23F03F031B041B0C96
:1033E0004FF6C062934209D00378FF2B08D1407892
:1033F00000F00F00052818BF0E2070470520704709
:103400000E2070472DE9F0470025804691461F4663
:103410000C462E464FF0010A3FB13A780AFA05F3FE
:103420001A421AD0237CDB0717D42046FFF752FF3D
:1034300098B94946204602F02FFA37B999F800307A
:10344000FF2B02D0637C834207D8B04205D9B8F184
:10345000000F01D0C8F8004006460135062D04F1E2
:103460003804D9D13046BDE8F087000070B5134C60
:10347000B4F95451A84206461ED0EDB904F5A8701F
:10348000FFF702FF4FF4A063A4F85831402384F8FB
:103490005A31A4F854612B46A4F8565180220849A9
:1034A0002046FFF73BFF04F5A870FEF7E3FC20463B
:1034B000BDE8704000F0E0BC70BD00BF802300207C
:1034C00076B40008034BB3F9542182420CBF18466E
:1034D00000207047802300202DE9F0410D4617465B
:1034E0009846FFF7EFFF044610B90020BDE8F081D1
:1034F0000029FAD00846FFF7EDFE0028F5D1802F0D
:10350000F3DC04F5A8763046FFF7BEFE43463A46A4
:1035100029462046FFF702FF04463046FEF7AAFC84
:103520002046BDE8F081000010B520B90548B0F98B
:10353000543133B101E0FFF7C5FFBDE81040FFF79C
:10354000A6BE10BD802300202DE9F8438946FFF771
:10355000B9FF0446E8B100F5A8763046FFF794FEBF
:10356000002504EB05084946404602F080F907466D
:1035700028B13046FEF77EFC4046BDE8F88338357A
:10358000B5F5A87FEDD13046FEF774FC3846BDE8AE
:10359000F883BDE8F883000038B5084C0546B4F957
:1035A00054011DB9FFF7D0FF20B938BDFFF7CCFF9C
:1035B000286008B1B4F9540138BD00BF8023002051
:1035C0002DE9F34102AD00260E4C45F8046D884606
:1035D000074604F5A870FFF757FE334642462146DA
:1035E0002846FFF70FFF20B1019B3B60B4F954411F
:1035F00000E004460448FEF73DFC204602B0BDE86A
:10360000F08100BF80230020D02400202DE9F34169
:1036100002AC0027884644F8047DFFF753FF00F50D
:10362000A87506462846FFF72FFE20463B46424631
:103630003146FFF7E7FE044628461CB1FEF71AFCA8
:10364000019802E0FEF716FC204602B0BDE8F081CA
:103650002DE9F04F87B00F461546FFF733FF00F511
:10366000A873804618460193FFF70EFE0122002141
:1036700002A805F0FCFE4646C3464FF0FF3A002480
:103680004FF001099BF80020FF2A12D05846FFF79F
:1036900021FE70B945B99DF8081009FA04F20A43F1
:1036A0008DF80820A24604E05846FFF71FFE0028C8
:1036B000F1D10134062C0BF1380BE3D1BAF1FF3F05
:1036C00000F0878004AD22460021284605F0CFFE99
:1036D0003B78FF2B04D197F8019009F00F0309E024
:1036E0003846FFF703FE20B93846FFF773FE009017
:1036F00001E0022300934FF000094C469DF80810AA
:10370000012303FA04F2114232D039463046B3465F
:1037100002F0ADF8002855D13046FFF7E7FD18B9A3
:103720003046FFF757FE00E00220009B834208D19D
:103730002A5D0432D2B22A554A4588BF4FF00409A7
:103740000AE009D92A5D0232D2B24A4513462A5507
:1037500038BF4B465FFA83F9B2694AB12A5D01323C
:10376000D2B24A4513462A5538BF4B465FFA83F911
:103770000134062C06F13806C0D10122002102A82E
:1037800005F075FE00209DF80820014601246E5CBE
:103790004E4504BF04FA01F0024301F1010104BFE8
:1037A000D2B201200629F2D108B18DF8082006A86E
:1037B000002340F80C3D3A4602AB4146FFF722FE9B
:1037C000DDF80CB0BBF1000F05D1382202FB0A8BEB
:1037D00001E04FF0000B0198FEF74CFB584607B094
:1037E000BDE8F08F2DE9F0438BB003A801F05AFA41
:1037F0000DF10A05804600264FF00809464553D0D2
:1038000035F9020FFFF75EFE044600284AD000F5A6
:10381000A8773846FFF738FDB5F90000CDF80090DD
:1038200004AB0022072101F04FF800280FDB08222B
:1038300004A908A805F0F5FD08221D4906A805F011
:10384000F0FD0023402206A92046FFF767FD022372
:10385000B5F90000009300220DF10E03092101F0DB
:1038600033F8002806DBBDF80E30B3F5A06F28BF93
:10387000A4F8583100231A46B5F9000000931B2123
:1038800001F022F8B4F856310028CCBF43F0800391
:1038900023F080033846A4F85631FEF7EBFA2046B1
:1038A00000F08EFB0136A9E70BB0BDE8F08300BF46
:1038B00056B4000813F1860F2DE9F34107468846F8
:1038C00016461C4625D004F09DFFA3B2054638B924
:1038D0000322009241463246384604F025FF18E0A4
:1038E000027F934200F114070CD031462C77224618
:1038F000384605F096FD0321284602B0BDE8F041A8
:1039000000F006BD22463946304605F07BFD002812
:10391000EBD102B0BDE8F0812DE9F04F1D46D3791F
:103920008BB0FF2B804603911646149C56D16B78C2
:10393000002B53D1172C51D92B7AFF2B4ED002F1EB
:10394000080928491022484605F05CFD58B105F1E8
:1039500008014046FFF7F8FD824600283ED00023CC
:10396000183C1F4616E00D221F4906F1180005F00D
:1039700049FD002832D0EAE707F1180205EB020BF7
:10398000AA5C012A09D09BF8012007EBC207BFB24D
:10399000A4EBC204002CEFDC0AE004AB00932A780D
:1039A00003985B46314600F051FD031EEBDA15E04B
:1039B00004AA49464046FFF77DFF1022494606A863
:1039C00005F02FFD337E00220092A3F1FF02534247
:1039D0005341514606AA404600F0CCFB0BB0BDE86F
:1039E000F08F00BFA6B4000896B400082DE9F04F90
:1039F000924687B0894603F108011D468046109E15
:103A000004F000FF9AF80730FF2B044640F0C9800D
:103A10006B78002B40F0C580172E40F2C2802A7AC6
:103A2000FF2A00F0BE80002800F0BB80183E1F4631
:103A3000002E19DD07F1180205EB020BAA5C022A21
:103A40000AD104AB2A78009351465B46484600F001
:103A500039FD031EC0F2A5809BF8012007EBC207C9
:103A6000BFB2A6EBC206E3E74FF0FF31484603932F
:103A700001F0D3F9039B00B18068627F02F0070276
:103A8000022A38D120B1027812B14278002A38D106
:103A900004A91A46A4F81E80237704F1140005F047
:103AA000C0FC2B79404F59064CBF0721032120460B
:103AB00000F02EFC95F90430002B637F4FF00006D8
:103AC000B4BF43F0080323F008036377B0462568CA
:103AD000002D66D02B68236069682E60B7F900005E
:103AE00000F0D7FE002803DC0021686801F0C8FB65
:103AF000C5F80480EBE738B102782AB142781AB1F0
:103B000009E0002BC4D14CE0002B44D1267F0036C5
:103B100018BF012610E0002B41D0227F93423CD0F9
:103B20001A4604A904F11400039305F06BFC039BEF
:103B3000B0FA80F0400906462A79920602D40EB106
:103B400053B11EE043B1A4F81E8023771A4604A99E
:103B500004F1140005F065FC2B795B0601D5072103
:103B600001E01EB10321204600F0D2FB95F904309C
:103B7000002B637FB4BF43F0080323F0080363778F
:103B80000FE0637F03F00703072B0AD103212046D0
:103B900000F0BEFB05E00026CEE70020CBE71E4686
:103BA000CAE707B0BDE8F08F7E1F00202DE9F04F77
:103BB00087B09046039107461C46DDF840A0FFF70A
:103BC00081FC08F10809054608225949484605F0D4
:103BD00019FC002840F0A98098F80830FF2B00F06D
:103BE000A48098F80730FF2B40F09F806378002B6B
:103BF00040F09B80BAF10F0F40F29780494638465B
:103C000004F000FE48B90B230093024603464946E0
:103C1000384604F089FD68B987E0437F1A0706D566
:103C2000E28852BA92B212B923F0080301E043F0DD
:103C300008034377E1888BB25BB13E4B3E4E1B8855
:103C400049BA89B200F134021BB27143203004F04A
:103C500029F923790BB185F85A31B5F85631C3F3F8
:103C60000D02A5F8562163791B0203F44043134368
:103C7000A5F85631A6689EB1D5F85C3136BAB34284
:103C80000ED002F073FA0A22B0FBF2F303FB12002B
:103C90000530C5F85C614643B6FBF2F6C5F86061D5
:103CA000E36813B11BBAC5F8643105F5A8700026A6
:103CB000FEF7E0F8AAF1100B0296BBF1000F2ADD27
:103CC00006F1100304EB030AE35C032B15D0052B6C
:103CD0000DD0012B17D104AB0093227803985346E3
:103CE000414600F0B3FB031E02930CDA1DE052467E
:103CF0002178384600F01AFC04E052462178384614
:103D000000F032FC88B19AF8013006EBC306B6B277
:103D1000ABEBC30BD1E73846029B04AA4946FFF739
:103D2000C9FD05F5B470FCF7BBFE07B0BDE8F08F28
:103D300056B400088804002040420F002DE9F041ED
:103D4000437F03F00703022B86B0044601D0052B06
:103D50007DD194F87420B4F91E50012A73D9022B36
:103D600011D14FF080730493FF238DF81430637CDE
:103D70008DF8153040F2FF200021638AADF816302F
:103D8000CDE902010BE0211D03C902AB83E803006A
:103D900004F10C0393E8030006AB03E90300013AC6
:103DA00084F874202DBB01AE304600F07BFF04F197
:103DB00004080746BD4208D036F9150002AB42465A
:103DC000002100F067FA0135F4E7224B04F13C05CD
:103DD000B3F900602846FCF763FE40F21223A4F812
:103DE000523004F1500233461B49284604F05AF879
:103DF0002DE02846FFF766FB0646221D02AB06F5BE
:103E0000A875B4F91E00002100F044FA01212846EB
:103E1000FEF700F80F4BD6F86471B3F9008004F197
:103E20003C063046FCF73CFE40F21223A4F8523028
:103E30003046434604F15002394604F033F8284630
:103E4000FEF718F803E0211D284604F003FD06B034
:103E5000BDE8F0817E1F002040420F00437F03F049
:103E60000703042B03D0072B04D1032100E0052115
:103E700000F04EBA7047000038B500F5A87504464A
:103E800001212846FDF7C6FF02F070F90A210A4B0E
:103E9000B0FBF1F202FB11000530C4F85C31434382
:103EA000B3FBF1F3C4F86031044BC4F86431284625
:103EB000BDE83840FDF7DEBF80C3C90140420F00B6
:103EC00010B5044608462378FF2B14D0002218238F
:103ED000872104F03DFB002270B183681A715A718A
:103EE0009A71DA7121686268DA609960A168E268A3
:103EF0005A61196110BD002010BD38B50B78FF2B39
:103F000005460C46104616D000221823882104F0DE
:103F10001FFB002280B1836825F01F051D71DA7137
:103F20009A715A7121686268DA609960A168E268E2
:103F30005A61196138BD002038BD08B50022082338
:103F4000852104F005FB28B1836800221A715A719B
:103F50009A71DA7108BD10B5002304461046CA1DD7
:103F600002F0F802194601F099F820B18268147045
:103F7000C368DB08537010BDF8B516460F461A46E5
:103F8000B11CFFF7E8FF044660B18568C2680235DE
:103F9000023A0021284605F06AFA32463946284698
:103FA00005F03FFA2046F8BD13460A4601460120B7
:103FB000FFF7E2BF13460A4601460220FFF7DCBFC7
:103FC000F8B5044602F0D2F804F5A87507460121B9
:103FD0002846FDF71FFF04F5B476032384F85B3110
:103FE0003046FCF75DFD40F21623A4F87E310A4905
:103FF0000A4BB7FBF1F0C4F8804101FB1071B3F933
:104000000030304604F5BE7203F04CFF2846BDE890
:10401000F840FDF72FBF00BF40420F007E1F002079
:1040200070B5044600F5A87501212846FDF7F2FE9B
:1040300094F85B31012B16D9013B04F5B47684F872
:104040005B313046FCF72CFD40F21623A4F87E319C
:104050000A4BC4F88041B3F90030094904F5BE7237
:10406000304603F01FFF2846FDF704FFB4F9540162
:104070000021BDE8704000F0ABB900BF7E1F0020FA
:1040800000093D0070B506460846194604F0EAFAF4
:104090000446A0B18368FF22DA7100231A4619464C
:1040A000184600F00BFE054620B92146204600F0D8
:1040B000E9FE02E083685E804460284670BD70BD02
:1040C000002101F0DDB830B585B0022300930D4624
:1040D0000DF10E0300220521044600F0F5FB002837
:1040E00003DBBDF80E30062B10D808230093002206
:1040F0002B460221204600F0E7FB002802DBADF84A
:104100000E000EE00023ADF80E300AE00823009305
:1041100000222B460321204600F0D6FB0628E4DDD2
:10412000EDE7BDF80E0005B030BD000038B5002049
:1041300004F0B2FB044660B1637F03F00703013B68
:10414000012B04D90A4B00221A60201D38BD2046DD
:10415000EEE7074D286804F09FFB034618B904F00A
:104160009BFB034610B12B60181D38BD204638BD9F
:10417000042500202DE9F7430A9C0F469946804606
:104180001646FFF79FF9B0F85631990701D400257C
:1041900007E04046FFF796F9B0F856315A07F6D5D2
:1041A000802510223649304605F02CF938B9102206
:1041B0003449304605F035F90223737001E045F0CB
:1041C0004005B9F1000F0BD069464046FFF77BFF71
:1041D00030B1C1B222466846FFF7ECFE68B1044632
:1041E00024B13B7CDB0758BF45F020052246394609
:1041F0002846FFF782FE814608B920463BE001468B
:10420000002332464046FFF73DFF054608B94846C1
:1042100031E03B7CDFF8789013F0010F23D001F000
:10422000A5FF194BB0FBF3F7314607FB13074046D8
:1042300004F0E8FA044618B914490320FCF7D4FC4A
:1042400000F158063046FCF72BFC40F20223A4F89C
:104250006E302567B9F9003004F16C0239463046FA
:1042600003F020FE09E00146B9F9000000F011FB5F
:10427000002802DC2846FFF723FF03B0BDE8F083E7
:10428000A6B4000866B4000840420F0081AA0008E6
:104290007E1F00202DE9F3410746164698460D463D
:1042A00029B90A463146FFF7D3F9054660B1694698
:1042B0003846FFF708FF48B1C1B200226846FFF751
:1042C00073FE044618B91BE0044600E0044630467D
:1042D0002146FFF7F5FD064688B101462B464246CA
:1042E0003846FFF7CFFE044608B9304608E0074BD2
:1042F0000146B3F9000000F0CCFA002802DC2046A9
:10430000FFF7DEFE02B0BDE8F08100BF7E1F002097
:104310002DE9F041437F23F007030B4305290446B1
:10432000437720D0072903D004294BD1264E05E03E
:10433000B0F91E00FFF7C6F8D0F86061234B04F116
:104340003C05B3F900702846FCF7AAFB40F217239E
:10435000A4F8523004F150023B4631462846BDE8ED
:10436000F04103F09FBDB0F91E00FFF7ABF8032347
:10437000064684F87430231D1A4606F5A875B4F96C
:104380001E000021FFF786FF01212846FDF742FDB0
:104390000E4BD6F86471B3F9008004F13C06304648
:1043A000FCF77EFB40F21223A4F85230304643461D
:1043B00004F15002394603F075FD2846BDE8F0418E
:1043C000FDF758BDBDE8F081404B4C007E1F00203A
:1043D0002DE9F3411B4D002918BF0D460022294647
:1043E0008046FFF735F9074670B169464046FFF74A
:1043F0006AFE38B1C1B200226846FFF7D5FD044617
:1044000018B91AE0044600E004462046FFF795FD7F
:10441000064688B101463B462A464046FFF732FE33
:10442000044608B9304608E0074B0146B3F90000DE
:1044300000F02FFA002802DC2046FFF741FE02B010
:10444000BDE8F08186B400087E1F0020F8B51E4646
:104450009F1C5B7804461546084613B96FF015009B
:10446000F8BD10221649083004F0CCFF0028F5D022
:1044700004B394F91030013305D1A368853D022DB2
:104480001C7802D919E06468F2E764B973780822ED
:104490006FF0010412FB034403FB026313F8012DC8
:1044A0000AB9013CFAE722463946069804F0B9FFFA
:1044B0002046F8BD853D022DE8D96FF08500F8BD96
:1044C000A6B4000870B51D465B780446164608463B
:1044D00013B96FF0150070BD10221349083004F0B5
:1044E00091FF0028F5D0882E1BD1A91C4CB194F95E
:1044F0001030013303D1A3681C7864B901E064680B
:10450000F4E76C78E408023CE4B20B1913F8013CC0
:104510000BB9013CF8E72246049804F082FF2046DC
:1045200070BD002070BD00BFA6B40008F8B51746E6
:104530000D46FEF7C7FF7C78012C06460FD1862D6D
:104540000FD100F5A87521462846FDF763FC7B686E
:104550001BBAA6F858312846FDF78CFC01E0002074
:10456000F8BD2046F8BD0000F0B55378042B87B0A5
:104570000646144669D1862965D102F110073449EF
:104580000822384604F03EFF00285CD0237CFF2B35
:1045900004D1637C03F00F03022B54D0394630461C
:1045A000FEF7D2FF054618B1427CA3789A4224D088
:1045B000636813B31022002102A804F058FFE378C7
:1045C0005B060FD4A278394602A801F08BF9E37894
:1045D000A27803F0C00302A93046FEF77DFF05462E
:1045E00058B932E008230093002204AB072130467B
:1045F00000F06AF90028E5DA27E063682BB915B303
:1046000029463046FEF790FF1DE01BBA6B61A26899
:10461000013312BAAA610CD00E4B61680E481B8898
:1046200009BA41431BB205F1300205F11C0003F049
:1046300039FC2B7C23F07F03DBB22B74E27822F071
:104640003F0213432B74012000E0002007B0F0BDAF
:1046500056B400088804002040420F002DE9F047BE
:104660001F4688B00446884615460023082268493C
:10467000DDF840900393384604F0C4FEC0B13B78A7
:10468000FF2B04D17B7803F00F03022B10D03946A7
:1046900025B903A8FEF794FF054603E02846FEF778
:1046A000B5FF0390039B23B193F91030002B00DA80
:1046B00027B9FFF73BFD002818BF074639462846B3
:1046C00004F0A0F8064638B1437F03F007035A1EF2
:1046D000012A00F290808CE00223009302460346F8
:1046E0003946284604F020F8044600B98DE0494BCD
:1046F00003EBC608D8F8042082B953F836A0BAF103
:10470000000F0BD1C8F804900121484600F0A6FD27
:10471000404B43F836A0236823B90AE00136102E37
:10472000E6D108E01A680AB11346FBE7C3F8008037
:1047300001E0C4F80080002340F2FF22CDE9042309
:104740004FF080730693FF238DF81C307B7B8DF830
:104750001D30FB89ADF81E301DBB02AE304600F0A7
:10476000A1FA8046454508D036F9150004AB3A4613
:104770000021FFF78FFD0135F4E7274B04F13C05DD
:10478000B3F900602846FCF78BF940F21223A4F835
:10479000523004F1500233462049284603F082FB90
:1047A00027E02846FEF78EFE06463A4604AB28462A
:1047B000002106F5A875FFF76DFD01212846FDF7DC
:1047C00029FB154BD6F86471B3F9008004F13C065F
:1047D0003046FCF765F940F21223A4F85230304617
:1047E000434604F15002394603F05CFB2846FDF7CE
:1047F00041FB002009E0032B02D10421FFF788FDD3
:1048000032464146204604F07DF808B0BDE8F08706
:1048100056B40008082500207E1F002040420F00EB
:104820002DE9F3410446884617461D4600F0C8FAB4
:10483000064650B34146204600F0B0FA711E0446C9
:10484000284600F00BFD04B3237A53B1012B17D196
:10485000E068ADF8027000226946019503F07AFB2A
:1048600007E0B4F90C10ADF802706846019503F04A
:1048700037FD002804DD204600F0B6FA0446E2E7E2
:104880000021284600F0FCFCF5E7304602B0BDE808
:10489000F08107B540F20223019101466846ADF868
:1048A000023003F01DFD03B05DF804FB07B540F2D4
:1048B0000123019101466846ADF8023003F010FD76
:1048C00003B05DF804FB000000B589B006930A9BB5
:1048D000ADF81C304FF401738DF81410ADF81620AC
:1048E000ADF80630024605AB03A901A8029303F018
:1048F0001BFDBDF80E2040F205239A4203D0044967
:104900000320FCF771F9049809B05DF804FB00BFBF
:1049100081AA000800B589B006930A9BADF81C3047
:1049200040F203238DF81410ADF81620ADF80630D0
:10493000024605AB03A901A8029303F0F5FCBDF8FC
:104940000E2040F205239A4203D004490320FCF7CD
:104950004BF9049809B05DF804FB00BF81AA000878
:10496000F0B5254E84683388838195B008210546CB
:1049700004A803F03BFD3088204B6360A56000B2C3
:1049800000F07EF9236820469B68984740F2032791
:1049900041F23426684603F026FDBDF80230BB42E2
:1049A00013D0B3F5017F08D240F202229342F1D135
:1049B0002B68019928469847EAE70AD0B342E9D123
:1049C00023682046DB689847E2E7236801995E691F
:1049D00002E0236801991E690B894A68097820461C
:1049E000B04740F20523039002A96846ADF80A30AB
:1049F00003F0C8FCCCE700BF88040020014A00088F
:104A000013B5806879B941F234230190B0F90C10E4
:104A1000ADF80230684603F041FC002816DC0C4873
:104A200004F04CFE12E0022910D143689847044676
:104A300060B10346074990F9100040F20122FFF7E8
:104A4000EFFE014610B9204600F01AFC02B010BD7E
:104A50002CB400080000FFFF30B585B0089C6CB195
:104A6000A5685DB10293074B009301940823FCF7FE
:104A70001FF90028D8BF6FF0150001E06FF0120099
:104A800005B030BD61490008F8B585682B685C68E1
:104A900000231A4619462846A047061E68DD002353
:104AA00019461846324600F0F9FA2B6804465F684A
:104AB00028B90346014632462846B84751E0816886
:104AC000002332462846B847011E4DDD8E4202DDE6
:104AD000204600F06BFB00220E21204600F0F8FA81
:104AE0000646002840D08768BB895BBA9BB248F273
:104AF000DD629A1A534253410021237414224FF06D
:104B0000FF33084600F0CAFA054660B38368062200
:104B10001A705A7000225A719A711A7180685A80FC
:104B20000278062A03D1B91D083004F07AFCA8687F
:104B30004278062A05D1037808333946184404F030
:104B400070FC0C4B1A88AB6831465A80204600F046
:104B500099F900236B6023465A680AB11346FBE7B4
:104B60005D602046F8BD34460021204600F088FBF9
:104B70000020F8BD880400202DE9F041876886B048
:104B80000D46002967D091F910304E68591C02D0AB
:104B90006FF04C0064E04EB196F910104FF6FF73C1
:104BA00048F2DD62012908BF13465BBAAC68ADF874
:104BB00014302278062A05D104F1080102A804F075
:104BC00030FC08E03B680DF10E02D3F810800221A2
:104BD00006233846C04723791A0612D45B0616D539
:104BE000002E3BD096F91030012B0AD1B168332347
:104BF0008DF808308DF80930042224310DF10A00B7
:104C00000CE00622FF2102A804F031FC08E06278E3
:104C1000062ABDD121780831214402A804F001FC04
:104C200001A9284600F002F9064660B18168019AA0
:104C300002AB0B600E234B603B6838461B689847FD
:104C40003546044601E06FF068042846002100F074
:104C500017FB204604E06FF0150001E06FF08500BF
:104C600006B0BDE8F0810000034B0360034B4360D6
:104C700081600020704700BF794B0008894A000816
:104C8000074B10B5B3F90040A04201D1002010BD80
:104C900014B16FF00B0010BD1880FEF7E7FBF5E7CD
:104CA00088250020044BB3F9003013B103800120A4
:104CB00070471846704700BF882500202DE9F04155
:104CC000174603F108020A440E46002180461D469D
:104CD00008464FF0FF3300F0E1F900220446F8B136
:104CE00083681E705D705A805A719A711A71B8F19A
:104CF000000F08D03EB180680278B24203D141462D
:104D0000083004F08EFB5FB155B1A0684378AB4228
:104D100006D1037808332A463946184404F081FB4B
:104D20002046BDE8F081000008B50B7A53B9B1F90F
:104D30000C200B4B53F822301B6A1BB90949032086
:104D4000FBF752FFC3B2032B9FBF074B53F8202042
:104D50000A6043F8201094BF00206FF0150008BDD2
:104D6000D404002081AA00088C250020C3B2032BA4
:104D700011D8094A52F820308B4206D11B6842F8FC
:104D800020307047914204D013461A68002AF9D1A6
:104D900001E00A681A6070478C250020C3B2032B1B
:104DA00009D8064B53F8200020B143688B4203D04A
:104DB0000068F9E770470020704700BF8C2500208D
:104DC000C3B2032B0BD8074B53F8203000202BB174
:104DD0005A681B688A4208BF0130F8E77047002014
:104DE000704700BF8C25002028B14368006810B1CF
:104DF00042689342FAD1704749B190F91030022BC2
:104E000003D0032B06D100F0C1BC03F0B1BB6FF09F
:104E1000150070476FF00100704728B190F910300D
:104E20008B4201D04068F8E77047000070B5044637
:104E30000E4619B912490320FBF7D6FE10B900201F
:104E4000306070BD01460025496801350029FBD15D
:104E50006FF00103EA00204600F020F90028EED0B0
:104E60008368002BE6D00833A26843F8082CE26878
:104E7000646843F8042C0833002CF5D1356070BD0C
:104E800081AA000810B504468C42084601D1646826
:104E900008E023465A682AB1904201D01346F9E748
:104EA00042685A600021416000F0EAF9204610BDD6
:104EB00070B503461A4A072B88BF033310688CBFAE
:104EC00023F003030823002140B34468A34202D91E
:104ED00001460068F8E7E41A072C0344114E05D890
:104EE000046809B9146011E00C600FE0C6F1080510
:104EF0001D44B5F5C05F02D90021116003E009B976
:104F0000136000E00B60026883E81400064A9B1BF4
:104F100011889BB2994201D2138070BD70BD00BF51
:104F2000A0250020A42500209C2500200121014867
:104F3000FCF770BFA43D0020204A38B5831AB3F5B2
:104F4000C05F39D21E4D2C68002324B1844202D2A6
:104F500023462468F9E707298ABF0331082121F095
:104F600003010460141AC1F5C0522244072A98BFF5
:104F7000891841600BB9286011E05A6818601A441A
:104F8000821A072A0BD818B90E490320FBF72CFE0A
:104F9000026841681A60C21A0A445A6018460368D7
:104FA00053B1426802449A1A072A05D81A68026067
:104FB0001A1A5B681344436038BD00BFA425002063
:104FC000A025002081AA00082DE9F843814614207D
:104FD0000F4616469846FFF76BFF0446D8B15EB100
:104FE0003046FFF765FF054638B920461421FFF724
:104FF000A3FF2846BDE8F88335460123C4F8049092
:10500000A560E66084F81080236027B132463946F7
:10501000284604F006FA2046BDE8F883F8B50F4D9F
:1050200004460026CCB1631BB3F5C05F03D30C4923
:105030000320FBF7D9FD94E88800012B09D1E16832
:10504000A0682660FFF778FF14212046FFF774FF61
:1050500001E0013B23603C46E4E7F8BDA4250020C5
:1050600081AA000808B5FFF761FF094A094B1360E0
:10507000182100221A705A709A70DA701A715971D8
:105080009A71DA710448BDE80840FCF7F3BE00BF2E
:10509000A0250020A4250020A43D0020B2F5C05F7B
:1050A000F8B505460E4614461F460DD8FFF73EFFDD
:1050B00022463B4631462846FFF786FF0446034812
:1050C000FCF7D8FE2046F8BD0020F8BDA43D002026
:1050D00007292DE9F84388BFCF1C0D468CBF27F068
:1050E0000307082704469146FFF720FF2DB124B19E
:1050F000E3689D4201D8A3682BB92B48FCF7BAFEA0
:105100000020BDE8F8831420FFF7D2FE06460028F1
:10511000F3D0E3689D422ED0AF4202D85A1B072A33
:1051200029D82846FFF7C4FE074610B91421304697
:105130000BE0E068401BFFF7BBFE804640B914213E
:105140003046FFF7F9FE29463846FFF7F5FED4E76B
:105150002A46A168384604F064F9E268A168521B47
:105160002944404604F05DF9E168A068FFF7E4FED9
:10517000C4F8088005E0A7689D4214BF7B1900238E
:10518000A360E36808485B1BE36063687360012306
:10519000B760F56086F8109033606660FCF76AFED1
:1051A0003046BDE8F88300BFA43D0020072970B554
:1051B00088BFCE1C04468CBF26F0030608260D4689
:1051C000FFF7B4FE1CB922490320FBF70DFDE3688D
:1051D000A06813B90028F6D106E00028F3D01D4AD4
:1051E000821AB2F5C05FEED29D422CD02DB930B1FB
:1051F0001946FFF7A1FEA56024E09D4202D8991B45
:10520000072917D82846FFF753FE064620B912484B
:10521000FCF730FE0C2070BDA16829B1E268AA42FB
:1052200028BF2A4604F0FDF8E168A068FFF784FE75
:10523000A66007E0033323F003039E4202D230440A
:10524000FFF77AFEE5600448FCF714FE002070BD0D
:1052500081AA0008A4250020A43D002038B50446FA
:105260000D46FFF763FE24B123682B442360646876
:10527000F9E70248BDE83840FCF7FCBDA43D00203A
:1052800010B50446FFF752FE2046FFF7C7FE02485E
:10529000BDE81040FCF7EEBDA43D002038B5044643
:1052A000FFF744FE0CB1E26822B90E48FCF7E2FDBC
:1052B000002038BD2368012B0FD994F91030A16864
:1052C0006068FFF781FE054610B12368013B23604B
:1052D0000448FCF7CFFD284638BD0248FCF7CAFD5C
:1052E000204638BDA43D002008B518B90749032061
:1052F000FBF77AFCC31C133013F8012F1AB9834251
:10530000FAD1012008BD002008BD00BF81AA000815
:105310002DE9F0410C4615469846064618B926492F
:105320000320FBF761FC11B1CB8A002BF7D02DB124
:10533000EB8A002BF3D00CB1A28AB2BB06F168074E
:1053400018220021384604F092F85CB12368042B3F
:1053500003D06FF06900BDE8F0811822214638467D
:1053600004F05FF806F1800718220021384604F0A7
:105370007EF87DB12B68042BEBD12846FFF7B4FFF4
:1053800018B16FF01500BDE8F081182229463846A3
:1053900004F047F824B1E28A0321304603F076FB9B
:1053A000A6F898800020BDE8F081AB8A002BC5D01C
:1053B0009A42C3D0E5E700BF81AA00082DE9F04179
:1053C00088B090460E461A460E9F044618B111B199
:1053D000B8F1000F03D12E490320FBF705FC836EC3
:1053E000002B50D008AD01A945F8183D2B4603F01D
:1053F00065FB002849DB0198C368984505D2002168
:10540000FFF73EFF6FF068003FE00321FFF705FD67
:105410000028E0D0D0F8088047B118222946384645
:1054200003F0FFFFB8F800305BBAFB82D4F880309D
:10543000E3B1B8F80030B4F896205BBA9BB29A4258
:1054400006D001980021FFF71BFF6FF046001CE01B
:10545000843410220F49204603F0D4FF30B11022CB
:1054600003A9204603F0CEFF0028EAD1019B304675
:105470009968DA6803F0D5FF01980021FFF700FF73
:10548000019BD86801E06FF07C0008B0BDE8F081B6
:1054900081AA0008A6B400082DE9F0410F4686B0A5
:1054A00090461D46044628B9002B7CD14249032072
:1054B000FBF79AFB0AB10029F8D0ADB1EB8A13B91A
:1054C0006FF0150074E02846FFF70EFF0028F7D1B3
:1054D0002B68042B5ED16CB1B4F87C2042B1AB8A4E
:1054E00033B19A4204D0EBE7D4F88030002B54D08B
:1054F000A36EF3B918220021684603F0B8FF2F4AC3
:10550000138803EB03166FEA86466FEA964601336B
:10551000B6B21380ACB1A4F87E6015B9D4F880306F
:1055200000E02B68A36632460321204603F0AEFA62
:1055300007E0182204F168016846B4F87E6003F0C1
:1055400070FF25B904F18005B4F8964000E0EC8ABC
:10555000009A2B680AB9009301E09A42B0D1002367
:10556000394642461846FFF799FD0746C0B1314615
:10557000224600F025F9014618B93846FFF780FEAB
:105580000EE011232A46694603F0FCFA00280FDDDD
:1055900008380DE06FF069000AE06FF07F0007E067
:1055A0006FF00B0004E0002A88D0002986D17DE747
:1055B00006B0BDE8F08100BF81AA0008A83D002028
:1055C0000021FFF75DBEF8B5074684890E461546F3
:1055D00000204DB900230822B96800F021F996F99E
:1055E0001030012B25D10DE0BD42F3D0B542F1D0F2
:1055F0002346AA89A96800F013F9EB686D681C447A
:10560000A4B2E6E702194FF6EE739A42C4BF013026
:1056100080B2B1681134204400232022083180B2C6
:1056200000F0FEF84FF6FF73984203D0C04380B2FB
:10563000F8BD0020F8BD000070B5102298B0002120
:105640000DEB020003F013FF4D4B05934D4B1B88F0
:10565000ADF81C3040F20523ADF80A3008216FF098
:10566000850308A8039302F0C1FE04A90320FFF7F5
:105670005BFB684602F0B7FEBDF802306FF40072C3
:105680001344032BF5D8DFE803F0023B7575019D49
:105690002846FFF703FE044608B9284667E00121C3
:1056A000FFF7BBFB064618B937490320FBF79CFA06
:1056B000606830B190F91030032B02D1C368082B19
:1056C00006D0032208212046FFF702FD00284DD016
:1056D000002385682374EB885BBA9BB2002B45D00E
:1056E00022463146FFF76FFF4FF6FF7398423DD1D8
:1056F000698849BA234640F2012289B2032031E089
:10570000019E304696F91050FFF7C8FD044608B9CF
:1057100030462CE0406826460028C5D090F910306D
:10572000032B07D0FFF7BAFD0346F8B1706040685D
:105730001E46F1E7FFF7B2FDC0B18268706000233A
:10574000C16840680B440028FAD15BBA93806B1C97
:1057500008BF63680A4908BF93F9105040F202225B
:1057600023462846FFF75CF8002882D12046FFF741
:1057700027FF7EE702A9684602F004FE79E700BF32
:105780000000FFFF8804002081AA000810B504462D
:1057900068B161B190F91030032B0BD14268FFF76B
:1057A00012FF50B1A36840BAD880002010BD6FF03E
:1057B0000D0010BD6FF04C0010BD6FF0010010BD6A
:1057C00038B50D461446032308220021FFF766FC76
:1057D00038B1836800226DBA64BA1D805C809A710A
:1057E000DA7138BD1FB50A4CB4F9003063B9094A03
:1057F0000193094B02920093052208234FF4806124
:105800000648FBF755FA2080B4F9000004B010BD3B
:10581000AA41002052B4000839560008AA3D0020D1
:10582000F0B51AB3DC0705D511F8014B013A204455
:1058300092B20133570801EB47054C1C0335023483
:10584000AC4207D014F803EC14F8026C06EB0E26F9
:105850003044F4E71A44D30703D511F8173000EBAE
:105860000320030C80B201D01844FAE7F0BD30B534
:105870004B68456804680A689D4208BF944209D194
:10588000C568CB6884688A689D4206BF944201203F
:10589000002030BD002030BD30B510B3E1B18842EA
:1058A0001CD001380139002210F8015F11F8014FB6
:1058B000A54202F1080303D1DAB2802AF4D10FE045
:1058C00085EA0401D8B20B060AD40132D2B24900EB
:1058D0008242C9B2F7D130BD084630BD802030BD0C
:1058E000104630BD802A28BF8022F8B5D50814465E
:1058F0002A4606460F4603F094FD63070ED0A4EB3C
:10590000C504725DFF23C4F1080403FA04F422EA1B
:10591000040272557B5D1C4014437455F8BD10F8A9
:10592000013F43B18B42FAD100230370437813B196
:10593000013003F092BB1046704700002DE9F0479C
:1059400007468AB008B90020A8E00029FBD0002053
:105950004FF0FF3406462346054631F810E0BEF10D
:10596000000F07D1B3F1FF3F13BF013503B201258B
:105970002DB20BE0B3F1FF3F08D0B4F1FF3F01D0EF
:10598000B54201DD2E461C464FF0FF33013008289A
:10599000E3D1581C04D0601C7DD0B54202DD7AE012
:1059A000601C03D0012ED8BF4FF0FF343D480025C6
:1059B0006B46E8464FF03A09AC4203D183F80090B9
:1059C000A5194EE015B183F80090013311F815E0E8
:1059D0001EF0F00F4FEA450C17D04FEA1E1A0EF0DA
:1059E0000F0E10F80AA010F80EE083F801E001EBAA
:1059F0000C0E83F800A09EF801E04FEA1E1E033350
:105A000010F80EE003F801EC21E0BEF1000F10D019
:105A100010F80EA09E460EF802AB01EB0C0A9AF8A5
:105A200001A04FEA1A1A10F80AA083F801A07346E1
:105A30000DE001EB0C0E9EF801E01EF0F00F1FBF11
:105A40004FEA1E1E10F80EE083F800E001338C448C
:105A500001359CF801E00EF00F0E10F80EE083F80F
:105A600000E0072D03F10103A6DD611C05D03444DD
:105A7000082C02BF3A2119700133002103F8011BE1
:105A8000C8EB030393423FF65EAF4146384603F04E
:105A9000FAFE384602E02E461C4683E70AB0BDE80F
:105AA000F08700BFC6B400080B680E2882B0A2EBD6
:105AB000030208D00F2819D00D2815D1CAB11878C3
:105AC00001330D3010E0012A13D91A465B7812F821
:105AD000020B8DF807308DF80600BDF8060040BABD
